{
  "transactions": [
    {
      "hash": "0x94818d0bffead139e82020e5d2c47dc298b6c3a01a1cf6c1b35bee2f41795460",
      "transactionType": "CALL",
      "contractName": "BasicNft",
      "contractAddress": "0xe3E90d765b802040D2f8B2E4d881bfD7A3E9827D",
      "function": "mintNft(string)",
      "arguments": [
        "ipfs://bafybeig37ioir76s7mg5oobetncojcm3c3hxasyd4rvid4jqhy4gkaheg4/?filename=0-PUG.json"
      ],
      "transaction": {
        "type": "0x02",
        "from": "0x59ed67184d676f8879de1fbc28250397a8ccbcdf",
        "to": "0xe3e90d765b802040d2f8b2e4d881bfd7a3e9827d",
        "gas": "0x41006",
        "value": "0x0",
        "data": "0xda86f4a900000000000000000000000000000000000000000000000000000000000000200000000000000000000000000000000000000000000000000000000000000057697066733a2f2f62616679626569673337696f6972373673376d67356f6f6265746e636f6a636d3363336878617379643472766964346a71687934676b61686567342f3f66696c656e616d653d302d5055472e6a736f6e000000000000000000",
        "nonce": "0x8",
        "accessList": []
      },
      "additionalContracts": [],
      "isFixedGasLimit": false
    }
  ],
  "receipts": [
    {
      "transactionHash": "0x94818d0bffead139e82020e5d2c47dc298b6c3a01a1cf6c1b35bee2f41795460",
      "transactionIndex": "0x8",
      "blockHash": "0x24a80c57a5e0b22055bc56c158c2a9ba1e67626b2a7b0d1f89fb7c03e2c70a1a",
      "blockNumber": "0x3d55b3",
      "from": "0x59eD67184d676F8879De1fbc28250397a8CCbCDf",
      "to": "0xe3E90d765b802040D2f8B2E4d881bfD7A3E9827D",
      "cumulativeGasUsed": "0x9a62b0",
      "gasUsed": "0x2c721",
      "contractAddress": null,
      "logs": [
        {
          "address": "0xe3E90d765b802040D2f8B2E4d881bfD7A3E9827D",
          "topics": [
            "0xddf252ad1be2c89b69c2b068fc378daa952ba7f163c4a11628f55a4df523b3ef",
            "0x0000000000000000000000000000000000000000000000000000000000000000",
            "0x00000000000000000000000059ed67184d676f8879de1fbc28250397a8ccbcdf",
            "0x0000000000000000000000000000000000000000000000000000000000000000"
          ],
          "data": "0x",
          "blockHash": "0x24a80c57a5e0b22055bc56c158c2a9ba1e67626b2a7b0d1f89fb7c03e2c70a1a",
          "blockNumber": "0x3d55b3",
          "transactionHash": "0x94818d0bffead139e82020e5d2c47dc298b6c3a01a1cf6c1b35bee2f41795460",
          "transactionIndex": "0x8",
          "logIndex": "0x4",
          "removed": false
        }
      ],
      "status": "0x1",
      "logsBloom": "0x00000000000000000000000000000000000000000000000000000000000000000000000000000000000040002000000000000000000000000000000000000008000000000000000000000008000000000000000000000000000000000000000000000000020000002000000000000800000000000000000000000010000000000000000000000000000000000000000000000000000000000000000000000000000000000000000000000000000000000000000000000000000000000000000000000002000000000000000000000080000000000000000000000000000028000000000000000000000000000000000000000000000000000000000000000000",
      "type": "0x2",
      "effectiveGasPrice": "0xbf3db63b"
    }
  ],
  "libraries": [],
  "pending": [],
  "returns": {},
  "timestamp": 1691086851,
  "chain": 11155111,
  "multi": false,
  "commit": "ecdba0f"
}